{
  "contractName": "Fundraiser",
  "abi": [
    {
      "inputs": [
        {
          "internalType": "string",
          "name": "_name",
          "type": "string"
        },
        {
          "internalType": "string",
          "name": "_url",
          "type": "string"
        },
        {
          "internalType": "string",
          "name": "_imageURL",
          "type": "string"
        },
        {
          "internalType": "string",
          "name": "_description",
          "type": "string"
        },
        {
          "internalType": "address payable",
          "name": "_beneficiary",
          "type": "address"
        },
        {
          "internalType": "address",
          "name": "_custodian",
          "type": "address"
        }
      ],
      "stateMutability": "nonpayable",
      "type": "constructor"
    },
    {
      "anonymous": false,
      "inputs": [
        {
          "indexed": true,
          "internalType": "address",
          "name": "donor",
          "type": "address"
        },
        {
          "indexed": false,
          "internalType": "uint256",
          "name": "value",
          "type": "uint256"
        }
      ],
      "name": "DonationRecieved",
      "type": "event"
    },
    {
      "anonymous": false,
      "inputs": [
        {
          "indexed": true,
          "internalType": "address",
          "name": "previousOwner",
          "type": "address"
        },
        {
          "indexed": true,
          "internalType": "address",
          "name": "newOwner",
          "type": "address"
        }
      ],
      "name": "OwnershipTransferred",
      "type": "event"
    },
    {
      "inputs": [],
      "name": "beneficiary",
      "outputs": [
        {
          "internalType": "address payable",
          "name": "",
          "type": "address"
        }
      ],
      "stateMutability": "view",
      "type": "function"
    },
    {
      "inputs": [],
      "name": "description",
      "outputs": [
        {
          "internalType": "string",
          "name": "",
          "type": "string"
        }
      ],
      "stateMutability": "view",
      "type": "function"
    },
    {
      "inputs": [],
      "name": "imageURL",
      "outputs": [
        {
          "internalType": "string",
          "name": "",
          "type": "string"
        }
      ],
      "stateMutability": "view",
      "type": "function"
    },
    {
      "inputs": [],
      "name": "name",
      "outputs": [
        {
          "internalType": "string",
          "name": "",
          "type": "string"
        }
      ],
      "stateMutability": "view",
      "type": "function"
    },
    {
      "inputs": [],
      "name": "owner",
      "outputs": [
        {
          "internalType": "address",
          "name": "",
          "type": "address"
        }
      ],
      "stateMutability": "view",
      "type": "function"
    },
    {
      "inputs": [],
      "name": "renounceOwnership",
      "outputs": [],
      "stateMutability": "nonpayable",
      "type": "function"
    },
    {
      "inputs": [],
      "name": "totalDonationCount",
      "outputs": [
        {
          "internalType": "uint256",
          "name": "",
          "type": "uint256"
        }
      ],
      "stateMutability": "view",
      "type": "function"
    },
    {
      "inputs": [],
      "name": "totalDonationValue",
      "outputs": [
        {
          "internalType": "uint256",
          "name": "",
          "type": "uint256"
        }
      ],
      "stateMutability": "view",
      "type": "function"
    },
    {
      "inputs": [
        {
          "internalType": "address",
          "name": "newOwner",
          "type": "address"
        }
      ],
      "name": "transferOwnership",
      "outputs": [],
      "stateMutability": "nonpayable",
      "type": "function"
    },
    {
      "inputs": [],
      "name": "url",
      "outputs": [
        {
          "internalType": "string",
          "name": "",
          "type": "string"
        }
      ],
      "stateMutability": "view",
      "type": "function"
    },
    {
      "inputs": [
        {
          "internalType": "address payable",
          "name": "_address",
          "type": "address"
        }
      ],
      "name": "setBeneficiary",
      "outputs": [],
      "stateMutability": "nonpayable",
      "type": "function"
    },
    {
      "inputs": [],
      "name": "donate",
      "outputs": [],
      "stateMutability": "payable",
      "type": "function"
    },
    {
      "inputs": [],
      "name": "myDonationsCount",
      "outputs": [
        {
          "internalType": "uint256",
          "name": "",
          "type": "uint256"
        }
      ],
      "stateMutability": "view",
      "type": "function"
    },
    {
      "inputs": [],
      "name": "myDonations",
      "outputs": [
        {
          "internalType": "uint256[]",
          "name": "values",
          "type": "uint256[]"
        },
        {
          "internalType": "uint256[]",
          "name": "dates",
          "type": "uint256[]"
        }
      ],
      "stateMutability": "view",
      "type": "function"
    },
    {
      "inputs": [],
      "name": "withdraw",
      "outputs": [],
      "stateMutability": "nonpayable",
      "type": "function"
    }
  ],
  "bytecode": "0x6080604052600060075560006008553480156200001b57600080fd5b50604051620019613803806200196183398181016040528101906200004191906200033b565b600062000053620001e360201b60201c565b9050806000806101000a81548173ffffffffffffffffffffffffffffffffffffffff021916908373ffffffffffffffffffffffffffffffffffffffff1602179055508073ffffffffffffffffffffffffffffffffffffffff16600073ffffffffffffffffffffffffffffffffffffffff167f8be0079c531659141344cd1fd0a4f28419497f9722a3daafe3b4186f6b6457e060405160405180910390a350856001908051906020019062000109929190620001eb565b50846002908051906020019062000122929190620001eb565b5083600390805190602001906200013b929190620001eb565b50826004908051906020019062000154929190620001eb565b5081600560006101000a81548173ffffffffffffffffffffffffffffffffffffffff021916908373ffffffffffffffffffffffffffffffffffffffff16021790555080600660006101000a81548173ffffffffffffffffffffffffffffffffffffffff021916908373ffffffffffffffffffffffffffffffffffffffff160217905550505050505050620005e2565b600033905090565b828054620001f9906200051a565b90600052602060002090601f0160209004810192826200021d576000855562000269565b82601f106200023857805160ff191683800117855562000269565b8280016001018555821562000269579182015b82811115620002685782518255916020019190600101906200024b565b5b5090506200027891906200027c565b5090565b5b80821115620002975760008160009055506001016200027d565b5090565b6000620002b2620002ac8462000469565b62000435565b905082815260208101848484011115620002cb57600080fd5b620002d8848285620004e4565b509392505050565b600081519050620002f181620005ae565b92915050565b6000815190506200030881620005c8565b92915050565b600082601f8301126200032057600080fd5b8151620003328482602086016200029b565b91505092915050565b60008060008060008060c087890312156200035557600080fd5b600087015167ffffffffffffffff8111156200037057600080fd5b6200037e89828a016200030e565b965050602087015167ffffffffffffffff8111156200039c57600080fd5b620003aa89828a016200030e565b955050604087015167ffffffffffffffff811115620003c857600080fd5b620003d689828a016200030e565b945050606087015167ffffffffffffffff811115620003f457600080fd5b6200040289828a016200030e565b93505060806200041589828a01620002f7565b92505060a06200042889828a01620002e0565b9150509295509295509295565b6000604051905081810181811067ffffffffffffffff821117156200045f576200045e6200057f565b5b8060405250919050565b600067ffffffffffffffff8211156200048757620004866200057f565b5b601f19601f8301169050602081019050919050565b6000620004a982620004c4565b9050919050565b6000620004bd82620004c4565b9050919050565b600073ffffffffffffffffffffffffffffffffffffffff82169050919050565b60005b8381101562000504578082015181840152602081019050620004e7565b8381111562000514576000848401525b50505050565b600060028204905060018216806200053357607f821691505b602082108114156200054a576200054962000550565b5b50919050565b7f4e487b7100000000000000000000000000000000000000000000000000000000600052602260045260246000fd5b7f4e487b7100000000000000000000000000000000000000000000000000000000600052604160045260246000fd5b620005b9816200049c565b8114620005c557600080fd5b50565b620005d381620004b0565b8114620005df57600080fd5b50565b61136f80620005f26000396000f3fe6080604052600436106100e85760003560e01c80635600f04f1161008a5780638da5cb5b116100595780638da5cb5b1461029d578063b90497e0146102c8578063ed88c68e146102f3578063f2fde38b146102fd576100e8565b80635600f04f146102055780636e4f436c14610230578063715018a61461025b5780637284e41614610272576100e8565b80631a57f7b4116100c65780631a57f7b41461016e5780631c31f7101461019a57806338af3eed146101c35780633ccfd60b146101ee576100e8565b80630180b97c146100ed57806306fdde03146101185780630b024f8714610143575b600080fd5b3480156100f957600080fd5b50610102610326565b60405161010f91906110da565b60405180910390f35b34801561012457600080fd5b5061012d610370565b60405161013a9190611078565b60405180910390f35b34801561014f57600080fd5b506101586103fe565b60405161016591906110da565b60405180910390f35b34801561017a57600080fd5b50610183610404565b604051610191929190611041565b60405180910390f35b3480156101a657600080fd5b506101c160048036038101906101bc9190610e51565b610637565b005b3480156101cf57600080fd5b506101d86106f7565b6040516101e59190611026565b60405180910390f35b3480156101fa57600080fd5b5061020361071d565b005b34801561021157600080fd5b5061021a610804565b6040516102279190611078565b60405180910390f35b34801561023c57600080fd5b50610245610892565b60405161025291906110da565b60405180910390f35b34801561026757600080fd5b50610270610898565b005b34801561027e57600080fd5b506102876109d2565b6040516102949190611078565b60405180910390f35b3480156102a957600080fd5b506102b2610a60565b6040516102bf919061100b565b60405180910390f35b3480156102d457600080fd5b506102dd610a89565b6040516102ea9190611078565b60405180910390f35b6102fb610b17565b005b34801561030957600080fd5b50610324600480360381019061031f9190610e28565b610c37565b005b6000600960003373ffffffffffffffffffffffffffffffffffffffff1673ffffffffffffffffffffffffffffffffffffffff16815260200190815260200160002080549050905090565b6001805461037d90611221565b80601f01602080910402602001604051908101604052809291908181526020018280546103a990611221565b80156103f65780601f106103cb576101008083540402835291602001916103f6565b820191906000526020600020905b8154815290600101906020018083116103d957829003601f168201915b505050505081565b60075481565b6060806000610411610326565b90508067ffffffffffffffff811115610453577f4e487b7100000000000000000000000000000000000000000000000000000000600052604160045260246000fd5b6040519080825280602002602001820160405280156104815781602001602082028036833780820191505090505b5092508067ffffffffffffffff8111156104c4577f4e487b7100000000000000000000000000000000000000000000000000000000600052604160045260246000fd5b6040519080825280602002602001820160405280156104f25781602001602082028036833780820191505090505b50915060005b81811015610631576000600960003373ffffffffffffffffffffffffffffffffffffffff1673ffffffffffffffffffffffffffffffffffffffff1681526020019081526020016000208281548110610579577f4e487b7100000000000000000000000000000000000000000000000000000000600052603260045260246000fd5b9060005260206000209060020201905080600001548583815181106105c7577f4e487b7100000000000000000000000000000000000000000000000000000000600052603260045260246000fd5b6020026020010181815250508060010154848381518110610611577f4e487b7100000000000000000000000000000000000000000000000000000000600052603260045260246000fd5b60200260200101818152505050808061062990611253565b9150506104f8565b50509091565b61063f610de0565b73ffffffffffffffffffffffffffffffffffffffff1661065d610a60565b73ffffffffffffffffffffffffffffffffffffffff16146106b3576040517f08c379a00000000000000000000000000000000000000000000000000000000081526004016106aa906110ba565b60405180910390fd5b80600560006101000a81548173ffffffffffffffffffffffffffffffffffffffff021916908373ffffffffffffffffffffffffffffffffffffffff16021790555050565b600560009054906101000a900473ffffffffffffffffffffffffffffffffffffffff1681565b610725610de0565b73ffffffffffffffffffffffffffffffffffffffff16610743610a60565b73ffffffffffffffffffffffffffffffffffffffff1614610799576040517f08c379a0000000000000000000000000000000000000000000000000000000008152600401610790906110ba565b60405180910390fd5b600560009054906101000a900473ffffffffffffffffffffffffffffffffffffffff1673ffffffffffffffffffffffffffffffffffffffff166108fc479081150290604051600060405180830381858888f19350505050158015610801573d6000803e3d6000fd5b50565b6002805461081190611221565b80601f016020809104026020016040519081016040528092919081815260200182805461083d90611221565b801561088a5780601f1061085f5761010080835404028352916020019161088a565b820191906000526020600020905b81548152906001019060200180831161086d57829003601f168201915b505050505081565b60085481565b6108a0610de0565b73ffffffffffffffffffffffffffffffffffffffff166108be610a60565b73ffffffffffffffffffffffffffffffffffffffff1614610914576040517f08c379a000000000000000000000000000000000000000000000000000000000815260040161090b906110ba565b60405180910390fd5b600073ffffffffffffffffffffffffffffffffffffffff1660008054906101000a900473ffffffffffffffffffffffffffffffffffffffff1673ffffffffffffffffffffffffffffffffffffffff167f8be0079c531659141344cd1fd0a4f28419497f9722a3daafe3b4186f6b6457e060405160405180910390a360008060006101000a81548173ffffffffffffffffffffffffffffffffffffffff021916908373ffffffffffffffffffffffffffffffffffffffff160217905550565b600480546109df90611221565b80601f0160208091040260200160405190810160405280929190818152602001828054610a0b90611221565b8015610a585780601f10610a2d57610100808354040283529160200191610a58565b820191906000526020600020905b815481529060010190602001808311610a3b57829003601f168201915b505050505081565b60008060009054906101000a900473ffffffffffffffffffffffffffffffffffffffff16905090565b60038054610a9690611221565b80601f0160208091040260200160405190810160405280929190818152602001828054610ac290611221565b8015610b0f5780601f10610ae457610100808354040283529160200191610b0f565b820191906000526020600020905b815481529060010190602001808311610af257829003601f168201915b505050505081565b60006040518060400160405280348152602001428152509050600960003373ffffffffffffffffffffffffffffffffffffffff1673ffffffffffffffffffffffffffffffffffffffff16815260200190815260200160002081908060018154018082558091505060019003906000526020600020906002020160009091909190915060008201518160000155602082015181600101555050610bc56001600754610de890919063ffffffff16565b600781905550610be034600854610de890919063ffffffff16565b6008819055503373ffffffffffffffffffffffffffffffffffffffff167feb1d122264cac6b8de640365ba15ffbfb014baafb1dad99f53f8a56a9ea2a4ad34604051610c2c91906110da565b60405180910390a250565b610c3f610de0565b73ffffffffffffffffffffffffffffffffffffffff16610c5d610a60565b73ffffffffffffffffffffffffffffffffffffffff1614610cb3576040517f08c379a0000000000000000000000000000000000000000000000000000000008152600401610caa906110ba565b60405180910390fd5b600073ffffffffffffffffffffffffffffffffffffffff168173ffffffffffffffffffffffffffffffffffffffff161415610d23576040517f08c379a0000000000000000000000000000000000000000000000000000000008152600401610d1a9061109a565b60405180910390fd5b8073ffffffffffffffffffffffffffffffffffffffff1660008054906101000a900473ffffffffffffffffffffffffffffffffffffffff1673ffffffffffffffffffffffffffffffffffffffff167f8be0079c531659141344cd1fd0a4f28419497f9722a3daafe3b4186f6b6457e060405160405180910390a3806000806101000a81548173ffffffffffffffffffffffffffffffffffffffff021916908373ffffffffffffffffffffffffffffffffffffffff16021790555050565b600033905090565b60008183610df6919061114a565b905092915050565b600081359050610e0d8161130b565b92915050565b600081359050610e2281611322565b92915050565b600060208284031215610e3a57600080fd5b6000610e4884828501610dfe565b91505092915050565b600060208284031215610e6357600080fd5b6000610e7184828501610e13565b91505092915050565b6000610e868383610fed565b60208301905092915050565b610e9b816111b2565b82525050565b610eaa816111a0565b82525050565b6000610ebb82611105565b610ec58185611128565b9350610ed0836110f5565b8060005b83811015610f01578151610ee88882610e7a565b9750610ef38361111b565b925050600181019050610ed4565b5085935050505092915050565b6000610f1982611110565b610f238185611139565b9350610f338185602086016111ee565b610f3c816112fa565b840191505092915050565b6000610f54602683611139565b91507f4f776e61626c653a206e6577206f776e657220697320746865207a65726f206160008301527f64647265737300000000000000000000000000000000000000000000000000006020830152604082019050919050565b6000610fba602083611139565b91507f4f776e61626c653a2063616c6c6572206973206e6f7420746865206f776e65726000830152602082019050919050565b610ff6816111e4565b82525050565b611005816111e4565b82525050565b60006020820190506110206000830184610ea1565b92915050565b600060208201905061103b6000830184610e92565b92915050565b6000604082019050818103600083015261105b8185610eb0565b9050818103602083015261106f8184610eb0565b90509392505050565b600060208201905081810360008301526110928184610f0e565b905092915050565b600060208201905081810360008301526110b381610f47565b9050919050565b600060208201905081810360008301526110d381610fad565b9050919050565b60006020820190506110ef6000830184610ffc565b92915050565b6000819050602082019050919050565b600081519050919050565b600081519050919050565b6000602082019050919050565b600082825260208201905092915050565b600082825260208201905092915050565b6000611155826111e4565b9150611160836111e4565b9250827fffffffffffffffffffffffffffffffffffffffffffffffffffffffffffffffff038211156111955761119461129c565b5b828201905092915050565b60006111ab826111c4565b9050919050565b60006111bd826111c4565b9050919050565b600073ffffffffffffffffffffffffffffffffffffffff82169050919050565b6000819050919050565b60005b8381101561120c5780820151818401526020810190506111f1565b8381111561121b576000848401525b50505050565b6000600282049050600182168061123957607f821691505b6020821081141561124d5761124c6112cb565b5b50919050565b600061125e826111e4565b91507fffffffffffffffffffffffffffffffffffffffffffffffffffffffffffffffff8214156112915761129061129c565b5b600182019050919050565b7f4e487b7100000000000000000000000000000000000000000000000000000000600052601160045260246000fd5b7f4e487b7100000000000000000000000000000000000000000000000000000000600052602260045260246000fd5b6000601f19601f8301169050919050565b611314816111a0565b811461131f57600080fd5b50565b61132b816111b2565b811461133657600080fd5b5056fea264697066735822122011fac3e18d4095b66653ddd82bd61f0de880497cc1cbf40428ec052a2be094ff64736f6c63430008000033",
  "immutableReferences": {},
  "source": "// SPDX-License-Identifier: MIT\npragma solidity^0.8.0;\n\nimport \"openzeppelin-solidity/contracts/access/Ownable.sol\";\nimport \"openzeppelin-solidity/contracts/utils/math/SafeMath.sol\";\n\ncontract Fundraiser is Ownable {\n\n    // Prevents overflow issues, espeically for donation amount \n    using SafeMath for uint256;\n\n    struct Donation {\n        uint256 value;\n        uint256 date;\n    }\n\n    string public name;\n    string public url;\n    string public imageURL;\n    string public description;\n    address payable public beneficiary;\n    address private _owner;\n\n    uint256 public totalDonationCount = 0;\n    uint256 public totalDonationValue = 0;\n\n    mapping(address => Donation[]) private _donations;\n\n    event DonationRecieved(address indexed donor, uint256 value);\n\n    // transferOwnership ensures the contract is controlled by the custodian\n    constructor(string memory _name, string memory _url, string memory _imageURL, string memory _description, address payable _beneficiary, address _custodian) {\n        name = _name;\n        url = _url;\n        imageURL = _imageURL;\n        description = _description;\n        beneficiary = _beneficiary;\n        _owner = _custodian;\n    }\n\n    function setBeneficiary(address payable _address) public onlyOwner {\n        beneficiary = _address;\n    }\n\n    function donate() public payable{\n        Donation memory donation = Donation({value: msg.value, date: block.timestamp});\n        _donations[msg.sender].push(donation);\n        // This syntax enables us to avoid integer overflow issues \n        totalDonationCount = totalDonationCount.add(1);\n        totalDonationValue = totalDonationValue.add(msg.value);\n\n        emit DonationRecieved(msg.sender, msg.value);\n    }\n\n    function myDonationsCount() public view returns(uint) {\n        return _donations[msg.sender].length;\n    }\n\n    function myDonations() public view returns(uint256[] memory values, uint256[] memory dates) {\n        // Gathers the length of values and dates arrays \n        uint256 count = myDonationsCount();\n        // Initalizes the array \n        values = new uint256[](count);\n        dates = new uint256[](count);\n\n        // Looping through _donations \n        for (uint256 i = 0; i < count; i++) {\n            // Creates a struct to store information from the _donations mapping \n            Donation storage donation = _donations[msg.sender][i];\n            values[i] = donation.value;\n            dates[i] = donation.date;\n        }\n\n        return(values, dates);\n    }\n\n    function withdraw() public onlyOwner {\n        beneficiary.transfer(address(this).balance);\n    }\n\n }",
  "sourcePath": "/Users/branavan/Documents/Solidity/fundraiser/contracts/Fundraiser.sol",
  "compiler": {
    "name": "solc",
    "version": "0.8.0+commit.c7dfd78e.Emscripten.clang"
  },
  "schemaVersion": "3.4.1",
  "updatedAt": "2021-06-01T23:23:23.498Z",
  "devdoc": {
    "kind": "dev",
    "methods": {
      "owner()": {
        "details": "Returns the address of the current owner."
      },
      "renounceOwnership()": {
        "details": "Leaves the contract without owner. It will not be possible to call `onlyOwner` functions anymore. Can only be called by the current owner. NOTE: Renouncing ownership will leave the contract without an owner, thereby removing any functionality that is only available to the owner."
      },
      "transferOwnership(address)": {
        "details": "Transfers ownership of the contract to a new account (`newOwner`). Can only be called by the current owner."
      }
    },
    "version": 1
  },
  "userdoc": {
    "kind": "user",
    "methods": {},
    "version": 1
  }
}